{
  "_format": "hh-sol-artifact-1",
  "contractName": "CoinFlip",
  "sourceName": "contracts/CoinFlip.sol",
  "abi": [
    {
      "inputs": [
        {
          "internalType": "address",
          "name": "_random",
          "type": "address"
        }
      ],
      "stateMutability": "nonpayable",
      "type": "constructor"
    },
    {
      "inputs": [],
      "name": "AlreadyResolved",
      "type": "error"
    },
    {
      "inputs": [],
      "name": "BadSubset",
      "type": "error"
    },
    {
      "inputs": [],
      "name": "NotAllowlisted",
      "type": "error"
    },
    {
      "inputs": [],
      "name": "NotEntrant",
      "type": "error"
    },
    {
      "inputs": [],
      "name": "OnlyOwner",
      "type": "error"
    },
    {
      "inputs": [],
      "name": "OnlyRandom",
      "type": "error"
    },
    {
      "inputs": [],
      "name": "StakeMismatch",
      "type": "error"
    },
    {
      "inputs": [],
      "name": "SubsetMismatch",
      "type": "error"
    },
    {
      "inputs": [],
      "name": "TooEarly",
      "type": "error"
    },
    {
      "inputs": [],
      "name": "WrongSide",
      "type": "error"
    },
    {
      "inputs": [],
      "name": "ZeroStake",
      "type": "error"
    },
    {
      "anonymous": false,
      "inputs": [
        {
          "indexed": true,
          "internalType": "uint256",
          "name": "id",
          "type": "uint256"
        }
      ],
      "name": "Cancelled",
      "type": "event"
    },
    {
      "anonymous": false,
      "inputs": [
        {
          "indexed": true,
          "internalType": "uint256",
          "name": "id",
          "type": "uint256"
        },
        {
          "indexed": true,
          "internalType": "address",
          "name": "player",
          "type": "address"
        },
        {
          "indexed": false,
          "internalType": "uint8",
          "name": "side",
          "type": "uint8"
        },
        {
          "indexed": false,
          "internalType": "uint256",
          "name": "stake",
          "type": "uint256"
        },
        {
          "indexed": false,
          "internalType": "bytes32",
          "name": "subsetHash",
          "type": "bytes32"
        }
      ],
      "name": "Entered",
      "type": "event"
    },
    {
      "anonymous": false,
      "inputs": [
        {
          "indexed": true,
          "internalType": "bytes32",
          "name": "flipId",
          "type": "bytes32"
        },
        {
          "indexed": true,
          "internalType": "bytes32",
          "name": "key",
          "type": "bytes32"
        }
      ],
      "name": "Heated",
      "type": "event"
    },
    {
      "anonymous": false,
      "inputs": [
        {
          "indexed": true,
          "internalType": "address",
          "name": "previousOwner",
          "type": "address"
        },
        {
          "indexed": true,
          "internalType": "address",
          "name": "newOwner",
          "type": "address"
        }
      ],
      "name": "OwnerTransferred",
      "type": "event"
    },
    {
      "anonymous": false,
      "inputs": [
        {
          "indexed": true,
          "internalType": "bytes32",
          "name": "flipId",
          "type": "bytes32"
        },
        {
          "indexed": false,
          "internalType": "address",
          "name": "heads",
          "type": "address"
        },
        {
          "indexed": false,
          "internalType": "address",
          "name": "tails",
          "type": "address"
        },
        {
          "indexed": false,
          "internalType": "uint256",
          "name": "stake",
          "type": "uint256"
        }
      ],
      "name": "Paired",
      "type": "event"
    },
    {
      "anonymous": false,
      "inputs": [
        {
          "indexed": true,
          "internalType": "bytes32",
          "name": "flipId",
          "type": "bytes32"
        },
        {
          "indexed": true,
          "internalType": "address",
          "name": "winner",
          "type": "address"
        },
        {
          "indexed": false,
          "internalType": "uint8",
          "name": "winningSide",
          "type": "uint8"
        },
        {
          "indexed": false,
          "internalType": "uint256",
          "name": "payout",
          "type": "uint256"
        },
        {
          "indexed": false,
          "internalType": "bytes32",
          "name": "seed",
          "type": "bytes32"
        }
      ],
      "name": "Settled",
      "type": "event"
    },
    {
      "anonymous": false,
      "inputs": [
        {
          "indexed": true,
          "internalType": "address",
          "name": "validator",
          "type": "address"
        }
      ],
      "name": "ValidatorAdded",
      "type": "event"
    },
    {
      "anonymous": false,
      "inputs": [
        {
          "indexed": true,
          "internalType": "address",
          "name": "validator",
          "type": "address"
        }
      ],
      "name": "ValidatorRemoved",
      "type": "event"
    },
    {
      "inputs": [],
      "name": "HEAT_DURATION",
      "outputs": [
        {
          "internalType": "uint256",
          "name": "",
          "type": "uint256"
        }
      ],
      "stateMutability": "view",
      "type": "function"
    },
    {
      "inputs": [],
      "name": "MIN_SUBSET",
      "outputs": [
        {
          "internalType": "uint256",
          "name": "",
          "type": "uint256"
        }
      ],
      "stateMutability": "view",
      "type": "function"
    },
    {
      "inputs": [],
      "name": "STALE_BLOCKS",
      "outputs": [
        {
          "internalType": "uint256",
          "name": "",
          "type": "uint256"
        }
      ],
      "stateMutability": "view",
      "type": "function"
    },
    {
      "inputs": [
        {
          "internalType": "address",
          "name": "validator",
          "type": "address"
        }
      ],
      "name": "addValidator",
      "outputs": [],
      "stateMutability": "nonpayable",
      "type": "function"
    },
    {
      "inputs": [
        {
          "internalType": "uint256",
          "name": "id",
          "type": "uint256"
        }
      ],
      "name": "cancel",
      "outputs": [],
      "stateMutability": "nonpayable",
      "type": "function"
    },
    {
      "inputs": [
        {
          "internalType": "bytes32",
          "name": "instanceId",
          "type": "bytes32"
        }
      ],
      "name": "choppedInstance",
      "outputs": [
        {
          "internalType": "bool",
          "name": "chopped",
          "type": "bool"
        }
      ],
      "stateMutability": "view",
      "type": "function"
    },
    {
      "inputs": [
        {
          "internalType": "bytes32",
          "name": "flipId",
          "type": "bytes32"
        }
      ],
      "name": "claim",
      "outputs": [],
      "stateMutability": "nonpayable",
      "type": "function"
    },
    {
      "inputs": [
        {
          "internalType": "uint8",
          "name": "side",
          "type": "uint8"
        },
        {
          "internalType": "address[]",
          "name": "validatorSubset",
          "type": "address[]"
        },
        {
          "components": [
            {
              "internalType": "address",
              "name": "provider",
              "type": "address"
            },
            {
              "internalType": "bool",
              "name": "callAtChange",
              "type": "bool"
            },
            {
              "internalType": "bool",
              "name": "durationIsTimestamp",
              "type": "bool"
            },
            {
              "internalType": "uint256",
              "name": "duration",
              "type": "uint256"
            },
            {
              "internalType": "address",
              "name": "token",
              "type": "address"
            },
            {
              "internalType": "uint256",
              "name": "price",
              "type": "uint256"
            },
            {
              "internalType": "uint256",
              "name": "offset",
              "type": "uint256"
            },
            {
              "internalType": "uint256",
              "name": "index",
              "type": "uint256"
            }
          ],
          "internalType": "struct PreimageLocation.Info[]",
          "name": "validatorLocations",
          "type": "tuple[]"
        }
      ],
      "name": "enterAndMatch",
      "outputs": [
        {
          "internalType": "uint256",
          "name": "id",
          "type": "uint256"
        }
      ],
      "stateMutability": "payable",
      "type": "function"
    },
    {
      "inputs": [
        {
          "internalType": "uint256",
          "name": "id",
          "type": "uint256"
        }
      ],
      "name": "entries",
      "outputs": [
        {
          "internalType": "address",
          "name": "player",
          "type": "address"
        },
        {
          "internalType": "uint8",
          "name": "side",
          "type": "uint8"
        },
        {
          "internalType": "uint256",
          "name": "stake",
          "type": "uint256"
        },
        {
          "internalType": "bytes32",
          "name": "subsetHash",
          "type": "bytes32"
        },
        {
          "internalType": "uint256",
          "name": "enteredAtBlock",
          "type": "uint256"
        },
        {
          "internalType": "bool",
          "name": "active",
          "type": "bool"
        }
      ],
      "stateMutability": "view",
      "type": "function"
    },
    {
      "inputs": [
        {
          "internalType": "bytes32",
          "name": "flipId",
          "type": "bytes32"
        }
      ],
      "name": "flips",
      "outputs": [
        {
          "internalType": "address",
          "name": "heads",
          "type": "address"
        },
        {
          "internalType": "address",
          "name": "tails",
          "type": "address"
        },
        {
          "internalType": "uint256",
          "name": "stake",
          "type": "uint256"
        },
        {
          "internalType": "bytes32",
          "name": "key",
          "type": "bytes32"
        },
        {
          "internalType": "uint256",
          "name": "pairedAtBlock",
          "type": "uint256"
        },
        {
          "internalType": "enum CoinFlip.Status",
          "name": "status",
          "type": "uint8"
        }
      ],
      "stateMutability": "view",
      "type": "function"
    },
    {
      "inputs": [
        {
          "internalType": "bytes32",
          "name": "key",
          "type": "bytes32"
        }
      ],
      "name": "instanceByKey",
      "outputs": [
        {
          "internalType": "bytes32",
          "name": "instanceId",
          "type": "bytes32"
        }
      ],
      "stateMutability": "view",
      "type": "function"
    },
    {
      "inputs": [
        {
          "internalType": "address",
          "name": "validator",
          "type": "address"
        }
      ],
      "name": "isValidator",
      "outputs": [
        {
          "internalType": "bool",
          "name": "allowed",
          "type": "bool"
        }
      ],
      "stateMutability": "view",
      "type": "function"
    },
    {
      "inputs": [],
      "name": "nextEntrant",
      "outputs": [
        {
          "internalType": "uint256",
          "name": "",
          "type": "uint256"
        }
      ],
      "stateMutability": "view",
      "type": "function"
    },
    {
      "inputs": [
        {
          "internalType": "bytes32",
          "name": "key",
          "type": "bytes32"
        },
        {
          "internalType": "bytes32",
          "name": "seed",
          "type": "bytes32"
        }
      ],
      "name": "onCast",
      "outputs": [],
      "stateMutability": "nonpayable",
      "type": "function"
    },
    {
      "inputs": [
        {
          "internalType": "bytes32",
          "name": "key",
          "type": "bytes32"
        }
      ],
      "name": "onChop",
      "outputs": [],
      "stateMutability": "nonpayable",
      "type": "function"
    },
    {
      "inputs": [
        {
          "internalType": "bytes32",
          "name": "",
          "type": "bytes32"
        },
        {
          "internalType": "address",
          "name": "",
          "type": "address"
        },
        {
          "internalType": "uint256",
          "name": "",
          "type": "uint256"
        }
      ],
      "name": "onReverse",
      "outputs": [],
      "stateMutability": "nonpayable",
      "type": "function"
    },
    {
      "inputs": [],
      "name": "owner",
      "outputs": [
        {
          "internalType": "address",
          "name": "",
          "type": "address"
        }
      ],
      "stateMutability": "view",
      "type": "function"
    },
    {
      "inputs": [],
      "name": "random",
      "outputs": [
        {
          "internalType": "address",
          "name": "",
          "type": "address"
        }
      ],
      "stateMutability": "view",
      "type": "function"
    },
    {
      "inputs": [
        {
          "internalType": "bytes32",
          "name": "flipId",
          "type": "bytes32"
        }
      ],
      "name": "refundStale",
      "outputs": [],
      "stateMutability": "nonpayable",
      "type": "function"
    },
    {
      "inputs": [
        {
          "internalType": "address",
          "name": "validator",
          "type": "address"
        }
      ],
      "name": "removeValidator",
      "outputs": [],
      "stateMutability": "nonpayable",
      "type": "function"
    },
    {
      "inputs": [
        {
          "internalType": "address",
          "name": "newOwner",
          "type": "address"
        }
      ],
      "name": "transferOwnership",
      "outputs": [],
      "stateMutability": "nonpayable",
      "type": "function"
    },
    {
      "inputs": [],
      "name": "validatorCount",
      "outputs": [
        {
          "internalType": "uint256",
          "name": "",
          "type": "uint256"
        }
      ],
      "stateMutability": "view",
      "type": "function"
    }
  ],
  "bytecode": "0x60a03460c157601f6116f938819003918201601f19168301916001600160401b0383118484101760c55780849260209460405283398101031260c157516001600160a01b038116810360c1576080525f80546001600160a01b031916339081178255604051917f8934ce4adea8d9ce0d714d2c22b86790e41b7731c84b926fbbdc1d40ff6533c98180a361161f90816100da82396080518181816101b70152818161041a0152818161063e015281816106b4015281816108f30152610e3c0152f35b5f80fd5b634e487b7160e01b5f52604160045260245ffdfe6080604090808252600480361015610015575f80fd5b5f3560e01c9182630e4ee5e1146109f35782630f43a677146109d9575081631e49024d1461093e5781631f27220b146108d857816321bb828b146108ba57816340a141ff1461083e57816340e58ee5146107825781634d238c8e146106f35781635d752c91146106d85781635ec01e4d1461069557816368ac3115146106215781636c1202a0146105f657816387ee2ee1146105cf5781638da5cb5b146105a9578163b30906d41461053d578163b6cd0ebb146104b4578163bd66528a146103bc578163c66db920146103a1578163dc593a7914610386578163f2fde38b146102ff578163f8c6c7c014610151575063facd743b14610112575f80fd5b3461014d57602036600319011261014d576020906001600160a01b03610136610a18565b165f526001825260ff815f20541690519015158152f35b5f80fd5b823461014d57602036600319011261014d578135805f526009602052815f2091600583019081549060ff8216868110156102ec576001036102dd576001600160a01b03936003860154825190630cf9dff760e01b8252888201526101009081816024818a7f0000000000000000000000000000000000000000000000000000000000000000165afa9182156102d3579060e092915f926102a6575b50500151610297575f528560205260ff815f205416158061026d575b61025e575060039060ff191617905580825416905f60028401928180855438935af115610252575f80939160018293015416389354905af11561024757005b63b12d13eb5f52601cfd5b8363b12d13eb5f52601cfd5b85905163085de62560e01b8152fd5b508585015460c88101809111610284574310610208565b601187634e487b7160e01b5f525260245ffd5b86825163085de62560e01b8152fd5b6102c59250803d106102cc575b6102bd8183610a8f565b81019061134a565b89806101ec565b503d6102b3565b84513d5f823e3d90fd5b8590516336ab81e160e11b8152fd5b602187634e487b7160e01b5f525260245ffd5b823461014d57602036600319011261014d57610319610a18565b5f54906001600160a01b039081831693843303610377575073ffffffffffffffffffffffffffffffffffffffff199394501680937f8934ce4adea8d9ce0d714d2c22b86790e41b7731c84b926fbbdc1d40ff6533c95f80a316175f55005b859051635fc483c560e01b8152fd5b823461014d575f36600319011261014d5760209051600c8152f35b823461014d575f36600319011261014d576020905160038152f35b823461014d57602036600319011261014d578135805f526009602052815f2060ff600582015416848110156104a1576001036104925760030154825190630cf9dff760e01b8252848201526101009081816024816001600160a01b037f0000000000000000000000000000000000000000000000000000000000000000165afa9182156102d3579060e092915f92610475575b505001519182156104665761046483836114d2565b005b83905163085de62560e01b8152fd5b61048b9250803d106102cc576102bd8183610a8f565b858061044f565b5050516336ab81e160e11b8152fd5b602185634e487b7160e01b5f525260245ffd5b823461014d57602036600319011261014d5781355f526009602052805f20906001600160a01b0391828154169260018201541691600282015460038301549160ff600588860154950154169481519687526020870152850152606084015260808301528281101561052a5760c0925060a0820152f35b602183634e487b7160e01b5f525260245ffd5b90503461014d57602036600319011261014d5760c09181355f526006602052805f20805492600182015460ff6002840154926003850154940154169360ff8151966001600160a01b038116885260a01c16602087015285015260608401526080830152151560a0820152f35b823461014d575f36600319011261014d576020906001600160a01b035f54169051908152f35b823461014d57602036600319011261014d57602091355f5260038252805f20549051908152f35b823461014d57602036600319011261014d5781602092355f52825260ff815f20541690519015158152f35b90503461014d57602036600319011261014d576001600160a01b037f00000000000000000000000000000000000000000000000000000000000000001633036106875780355f526003602052815f20545f526020525f20600160ff198254161790555f80f35b905163e9294e3f60e01b8152fd5b823461014d575f36600319011261014d57602090516001600160a01b037f0000000000000000000000000000000000000000000000000000000000000000168152f35b823461014d575f36600319011261014d576020905160c88152f35b90503461014d57602036600319011261014d5761070e610a18565b6001600160a01b0391825f5416330361077457501690815f5260016020525f20805460ff81161561073b57005b60019060ff19161790556001600254016002557fe366c1c0452ed8eec96861e9e54141ebff23c9ec89fe27b996b45f5ec38849875f80a2005b8351635fc483c560e01b8152fd5b823461014d57602036600319011261014d57813590815f526006602052805f20916001600160a01b0383541691338303610816578484019081549060ff821615610807575060ff191690555f92839182916001917fc41d93b8bfbf9fd7cf5bfe271fd649ab6a6fec0ea101c23b82a2a28eca2533a98480a2015438935af11561024757005b8690516336ab81e160e11b8152fd5b8490517f35ef9fc7000000000000000000000000000000000000000000000000000000008152fd5b90503461014d57602036600319011261014d57610859610a18565b6001600160a01b0391825f5416330361077457501690815f5260016020525f20805460ff811661088557005b60ff19169055600280545f190190557fe1434e25d6611e0db941968fdc97811c982ac1602e951637d206f5fdda9dd8f15f80a2005b823461014d575f36600319011261014d576020906005549051908152f35b823461014d578060031936011261014d576001600160a01b037f00000000000000000000000000000000000000000000000000000000000000001633036109315761046491355f526003602052602435905f20546114d2565b5163e9294e3f60e01b8152fd5b82606036600319011261014d5781359160ff8316830361014d5767ffffffffffffffff60243581811161014d573660238201121561014d578083013582811161014d573660248260051b8401011161014d576044359383851161014d573660238601121561014d5784013592831161014d573660248460081b8601011161014d576020956024806109d29601930190610afc565b9051908152f35b3461014d575f36600319011261014d576020906002548152f35b3461014d57606036600319011261014d576024356001600160a01b0381160361014d57005b600435906001600160a01b038216820361014d57565b35906001600160a01b038216820361014d57565b60c0810190811067ffffffffffffffff821117610a5e57604052565b634e487b7160e01b5f52604160045260245ffd5b610100810190811067ffffffffffffffff821117610a5e57604052565b90601f8019910116810190811067ffffffffffffffff821117610a5e57604052565b5f198114610abf5760010190565b634e487b7160e01b5f52601160045260245ffd5b8054821015610ae8575f5260205f2001905f90565b634e487b7160e01b5f52603260045260245ffd5b94939192600160ff8716116113135734156112e957600384106112d8575f5b8481106112475750604051602081019085604082016020845252606081018185915f5b89811061121d5750610b59925003601f198101835282610a8f565b519020610b67600554610ab1565b806005558097604051610b7981610a42565b33815260ff82166020820152346040820152836060820152436080820152600160a0820152825f52600660205260a0600460405f206001600160a01b038451168154907fffffffffffffffffffffff00000000000000000000000000000000000000000074ff00000000000000000000000000000000000000006020880151871b1692161717815560408401516001820155606084015160028201556080840151600382015501910151151560ff80198354169116179055604051827ff0b3e7f6424a341b25a4da06d3b72a58c94f453b13f1d653b6b3bf28b1e42c2e339280610c798834888460409194939260ff606083019616825260208201520152565b0390a360ff811661121457610c9160015b84346113f3565b9283156111ae575050505f52600660205260405f2092865f5260405f20936004810160ff1981541690556004850160ff19815416905560ff815460a01c16155f146111a85793925b67ffffffffffffffff8611610a5e578560051b60405196610cfd6020830189610a8f565b87526020870190368184011161014d5782915b81840183106111905750505050845194858203611166575f5b8681106110f3575050938460e09560405192610d4484610a72565b308452600160208501525f6040850152600c60608501525f60808501525f60a08501525f60c08501525f888501526040519788947f7f5299bb00000000000000000000000000000000000000000000000000000000865261016486019260048701526001600160a01b038151166024870152602081015115156044870152604081015115156064870152606081015160848701526001600160a01b0360808201511660a487015260a081015160c487015260c081015160e4870152015161010485015261016061012485015252610184820192905f5b81811061105e57505050806020925f61014483015203815f6001600160a01b037f0000000000000000000000000000000000000000000000000000000000000000165af1928315611053575f9361101f575b50610e78600a54610ab1565b9081600a556001600160a01b03835416926001600160a01b038254169260405160208101913083526040820152856060820152846080820152608081528060a081011067ffffffffffffffff60a083011117610a5e5760059160a082016040528151902095610ee960a08301610a42565b60a082015260c0810194855260e08101348152610100820188815261012083019143835261014084019760018952895f5260096020526001600160a01b0360a060405f209601511673ffffffffffffffffffffffffffffffffffffffff1990818754161786556001600160a01b03600187019251169082541617905551600284015551600383015551600482015501925191600483101561100b576001600160a01b038060609387967f463fa264662a5482d1935be9ee646428cbeb2b6eeff946081f03d8d9e6fbcc339660ff80198354169116179055885f5260036020528660405f205554169154166040519182526020820152346040820152a27f58987768ac2139fd7f1277fb30d9daa416f534654578f83c958da59e0d1ae1475f80a3565b634e487b7160e01b5f52602160045260245ffd5b9092506020813d60201161104b575b8161103b60209383610a8f565b8101031261014d5751915f610e6c565b3d915061102e565b6040513d5f823e3d90fd5b919360019193506001600160a01b0361107686610a2e565b168152611085602086016115dc565b15156020820152611098604086016115dc565b15156040820152606085013560608201526001600160a01b036110bd60808701610a2e565b16608082015260a085013560a082015260c085013560c082015260e085013560e082015261010080910194019101918692610e1a565b82811015610ae8576111098160081b85016113df565b6001600160a01b038061111c84866115c8565b5116911603611166576001600160a01b0361113782846115c8565b51165f52600160205260ff60405f2054161561115557600101610d29565b60046040516306fb10a960e01b8152fd5b60046040517f0e9b36de000000000000000000000000000000000000000000000000000000008152fd5b6020809161119d85610a2e565b815201920191610d10565b92610cd9565b95509550959650505050345f52600760205260405f20905f5260205260ff60405f2091165f5260205260405f20805468010000000000000000811015610a5e576111fd91600182018155610ad3565b81549060031b9083821b915f19901b191617905590565b610c915f610c8a565b91506020806001926001600160a01b0361123687610a2e565b168152019301910191839192610b3e565b6001600160a01b038061126361125e8489886113cf565b6113df565b16805f52600160205260409160ff835f205416156112c85760018401808511610abf575b88811061129a5750505050600101610b1b565b82826112aa61125e848d8c6113cf565b16146112b857600101611287565b60048451635c88c0d960e11b8152fd5b600483516306fb10a960e01b8152fd5b6004604051635c88c0d960e11b8152fd5b60046040517f150a67e9000000000000000000000000000000000000000000000000000000008152fd5b60046040517fa9e46fb8000000000000000000000000000000000000000000000000000000008152fd5b5190811515820361014d57565b908161010091031261014d576040519061136382610a72565b8051906001600160a01b038216820361014d5760e09183526113876020820161133d565b60208401526113986040820161133d565b6040840152606081015160608401526080810151608084015260a081015160a084015260c081015160c0840152015160e082015290565b9190811015610ae85760051b0190565b356001600160a01b038116810361014d5790565b9190825f5260209060078252604091825f20825f528152825f209160ff80951692835f528252835f2095805f5260089060088452855f20835f528452855f20855f528452855f2054965f985b80548910806114c9575b156114a3576114588982610ad3565b90549060031b1c9860018091019a0198805f52600687528260048a5f20015416611485575098979861143f565b99985050505f528252835f20905f528152825f20915f52525f205590565b505091929394959650505f5260088252835f20905f528152825f20915f52525f20555f90565b50858a10611449565b805f52600960205260405f209060058201805460ff8116600481101561100b576001036115b75760ff191660021790556001831692836115a15760026001600160a01b03845416935b01548060011b9080820460021490151715610abf575f9485937fac6350af70cba23ee189c07015060156345f12cc406d83706092c7ab64c751c96115868695604051918291876001600160a01b038c16978460409194939260ff606083019616825260208201520152565b0390a338935af11561159457565b63b12d13eb5f526004601cfd5b60026001600160a01b036001850154169361151b565b60046040516336ab81e160e11b8152fd5b8051821015610ae85760209160051b010190565b3590811515820361014d5756fea264697066735822122013f580c099e11044219e975311c2964f486e30eb0cd81a448db8fc39f6afa2ab64736f6c63430008190033",
  "linkReferences": {},
  "deployedLinkReferences": {}
}